:100000000128831686018801831200308800831638
:1000100003130E309F00073089008312031305304D
:10002000A0000930A1000030A2000130A300003080
:10003000A4000030A5000030B0000030B100003056
:10004000B2000030B3000030B4000930B5002828F9
:100050008918942009182E2035282828A40A241944
:10006000322008000030A400080024183B2838285B
:10007000A41844283E28A418472841282008A50091
:100080004A282108A5004A282208A5004A28230852
:10009000A5004A28251C4D285928A51C502856285B
:1000A000251D53287528A51D65288528251D6D2823
:1000B0007D28A51862285C28251979285F28A519AC
:1000C00089286928251981287128C030A5008D202C
:1000D0002828EB30A5008D202828A430A5008D20ED
:1000E0002828A230A5008D2028288B30A5008D203F
:1000F00028289230A5008D2028289030A5008D203A
:100100002828E330A5008D2028288030A5008D20E8
:1001100028288330A5008D20282825088800E9207C
:10012000E920E920E92008002121F630A900A320D8
:10013000A90B9728F630A900CB20A90B9C280030EA
:10014000B000F4200800B00A0930A600E5200C3009
:10015000A600E5200630A600E5200330A600E52035
:10016000F630A900BD20A90BB228F630A900D8208E
:10017000A90BB7280030B1000800B10A9030A600E2
:10018000E520C030A600E5206030A600E520303034
:10019000A600E52008000330A600E5200630A600F2
:1001A000E5200C30A600E5200930A600E520080077
:1001B0003030A600E5206030A600E520C030A60063
:1001C000E5209030A600E520080026088600E920FA
:1001D0000800A830A7000130A800A70BF028A80B42
:1001E000ED28F22800000800320A0319FB20330A28
:1001F0000319012108003208A9000721A90BFD28D5
:1002000008003308A9001421A90B032908000930AC
:10021000A600E5200C30A600E5200630A600E5206B
:100220000330A600E52008009030A600E520C0308D
:10023000A600E5206030A600E5203030A600E520CD
:100240000800320A03192821330A03192E21080055
:100250003208A900CB20A90B2A2908003308A900DD
:10026000D820A90B3029080036083502031844218C
:1002700036083402031C3D2108003608B40030085B
:0E028000B2003108B30008003608B5000800CF
:02400E00713F00
:00000001FF
